:100000000C94B1000C94D9000C94D9000C948B067C
:100010000C94B5060C94DF060C94D9000C94D9000E
:100020000C94D9000C94D9000C94D9000C94D900EC
:100030000C94D9000C94D9000C94D9000C94D900DC
:100040000C9451040C94D9000C94D9000C94D90050
:100050000C94D9000C94D9000C94D9000C94D900BC
:100060000C94D9000C94D900000000002400270053
:100070002A0000000000250028002B0000000000DE
:1000800023002600290004040404040404040202DA
:100090000202020203030303030301020408102007
:1000A0004080010204081020010204081020000012
:1000B0000007000201000003040600000000000029
:1000C000000000C201000100110011000C0000E15D
:1000D00000000A00250025002100009600001900FC
:1000E000390039003600127A00001F004600460031
:1000F00044008070000022004D004D004A00004B7B
:1001000000003600750075007200403800004A009B
:100110009C009C009900802500007200EC00EC001F
:10012000E900C0120000E900DA01DA01D701600934
:100130000000D701B603B603B303B0040000B30355
:100140006E076E076B07580200006E07DC0EDC0EB0
:10015000D80E2C010000DC0EC11DC11DBE1DC70143
:10016000C00111241FBECFEFD8E0DEBFCDBF11E02C
:10017000A0E0B1E0E4EAF2E202C005900D92A639F7
:10018000B107D9F712E0A6E9B1E001C01D92AB3585
:10019000B107E1F711E0C0E6D1E004C02297FE010B
:1001A0000E944111CE35D107C9F70E9442040C9438
:1001B000F9000C940000FC0188279927E89421910C
:1001C0002032E9F3293010F02E30C8F32B3241F001
:1001D0002D3239F4689404C00E94FC00820F911DF6
:1001E000219120532A30C0F31EF4909581959F4FA2
:1001F0000895F8940C9445117AE0979F902D879F6D
:10020000802D910D112408958F929F92AF92BF92ED
:10021000CF92DF92EF92FF920F931F93813091055F
:1002200009F09AC06F5F7F4F09F09FC082EA91E0AA
:100230006CE04DE020E00E947409609154017091DF
:10024000550182EC91E00E94690C60916601709109
:100250006701409168015091690100915601109128
:100260005701209158013091590186EC91E00E948C
:10027000D00C60916A0170916B0140916C015091BA
:100280006D01009156011091570120915801309154
:10029000590182ED91E00E94D00C60916E01709145
:1002A0006F014091700150917101009156011091C0
:1002B000570120915801309159018EED91E00E9433
:1002C000D00C609172017091730140917401509152
:1002D00075010091560110915701209158013091FC
:1002E00059018AEE91E00E94D00C00D000D06091BC
:1002F00076017091770140917801509179012091B8
:100300007A0130917B010091800110918101E09090
:100310007C01F0907D01C0907E01D0907F0180E053
:1003200090E0A0E8BFE3EDB7FEB781839283A3839B
:10033000B48386EF91E00F2EF0E08F2EF0E09F2E39
:10034000F0E8AF2EFFE3BF2EF02D0E94070C0F90B8
:100350000F900F900F9009C0892B39F46F5F7F4F7A
:1003600021F482EA91E00E94FB071F910F91FF9018
:10037000EF90DF90CF90BF90AF909F908F900895B7
:1003800080E090E06FEF7FEF0E940401089581E02C
:1003900090E06FEF7FEF0E940401089586EC91E0FA
:1003A0000E94F50C62E370E080E090E00E94A704F8
:1003B0008EED91E00E94F50C62E370E080E090E049
:1003C0000E94A70482EC91E00E946C0C62E370E052
:1003D00080E090E00E94A70482ED91E00E94F50C7D
:1003E00062E370E080E090E00E94A7048AEE91E072
:1003F0000E94F50C62E370E080E090E00E94A704A8
:100400000895EF92FF920F931F9382EA91E00E946A
:100410002508892B09F471C082EA91E00E94040842
:100420008093A1018C3469F48093A001109296010D
:1004300010929701109298011092990110929A01CE
:1004400014C0823569F48093A00110929B01109230
:100450009C0110929D0110929E0110929F0105C077
:100460008D3019F485E68093A0018091A0018C3431
:1004700081F49091A1019C3409F43FC080919A01CC
:10048000E82FF0E0EA56FE4F90838F5F80939A0149
:1004900034C0823579F49091A101923571F1809147
:1004A0009F01E82FF0E0E556FE4F90838F5F809329
:1004B0009F0123C0853609F586E991E00E94DB00A3
:1004C0008C018BE991E00E94DB00AC0186EF91E0AA
:1004D000B80120E030E00E94C00A6AE070E080E0ED
:1004E00090E00E94A7040E9499046093BE0170935B
:1004F000BF018093C0019093C1010E949904209193
:100500005001309151014091520150915301E090BE
:10051000BE01F090BF010091C0011091C1012E0DEC
:100520003F1D401F511F621773078407950780F016
:1005300086EF91E00E94A20981E090E09093830110
:100540008093820183E090E090930D0280930C02EF
:100550001F910F91FF90EF90089520910C02309120
:100560000D02809182019091830128173907E9F1EA
:100570008AEE91E00E94BA0C20915A0130915B0101
:1005800040915C0150915D012617370748075907D4
:1005900088F48EED91E00E94BA0C20915A013091BE
:1005A0005B0140915C0150915D01261737074807B8
:1005B000590750F060914E0170914F0186EF91E024
:1005C00041E00E94010A09C060914E0170914F0103
:1005D00086EF91E041E00E94C909809182019091EB
:1005E000830190930D0280930C0286EC91E00E94AF
:1005F000BA0C20915E0130915F01409160015091F1
:100600006101261737074807590708F051C082EDE6
:1006100091E00E94BA0C20915E0130915F014091FF
:10062000600150916101261737074807590708F004
:100630003FC082EC91E00E945D0CA0E0B0E0209110
:100640006201309163014091640150916501281766
:1006500039074A075B0760F58EED91E00E94BA0CFE
:1006600020915E0130915F014091600150916101E4
:100670002617370748075907D8F48AEE91E00E94F9
:10068000BA0C20915E0130915F0140916001509160
:100690006101261737074807590750F486EF91E0A4
:1006A0000E94A20981E090E09093830180938201EF
:1006B000089520910C0230910D0280918201909159
:1006C00083012817390781F060914C0170914D0129
:1006D00086EF91E00E94390A809182019091830116
:1006E00090930D0280930C0286EC91E00E94BA0C6C
:1006F00020915A0130915B0140915C0150915D0164
:10070000261737074807590708F046C082ED91E0E1
:100710000E94BA0C20915A0130915B0140915C011A
:1007200050915D012617370748075907A8F582EC55
:1007300091E00E945D0CA0E0B0E020915A01309160
:100740005B0140915C0150915D01281739074A0710
:100750005B0710F58EED91E00E94BA0C20915A01D2
:1007600030915B0140915C0150915D012617370784
:100770004807590788F48AEE91E00E94BA0C20914C
:100780005A0130915B0140915C0150915D01261747
:1007900037074807590750F086EF91E00E94A209F9
:1007A00082E090E09093830180938201089580918C
:1007B000820190918301039779F082EA91E00E948F
:1007C0002508892B39F083E090E090938301809392
:1007D000820102C00E94CE0180918201909183012A
:1007E0008230910541F08330910541F0019741F449
:1007F0000E94590308950E94AD0208950E940102CB
:1008000008950F931F9302EA11E0C80140E855E2F2
:1008100060E070E00E940907C80160E071E00E949A
:100820001E06C8016EE071E00E941E06C80165E266
:1008300071E00E941E06C80163E371E00E941E067B
:1008400060ED77E080E090E00E94A704C80161E4D9
:1008500071E00E941E0660ED77E080E090E00E946B
:10086000A704C8010E94F1081F910F9108958CE020
:1008700060E00E9445058DE061E00E9445050E9410
:1008800001040895CF93DF930E940A050E94370464
:10089000C0E0D0E00E94D7032097E1F30E9400005F
:1008A000F9CF1F920F920FB60F9211242F933F93FF
:1008B0008F939F93AF93BF938091120290911302F5
:1008C000A0911402B0911502309116020196A11D5B
:1008D000B11D232F2D5F2D3720F02D570196A11D1F
:1008E000B11D209316028093120290931302A093DD
:1008F0001402B093150280910E0290910F02A09104
:100900001002B09111020196A11DB11D80930E023B
:1009100090930F02A0931002B0931102BF91AF9178
:100920009F918F913F912F910F900FBE0F901F902D
:1009300018958FB7F89420911202309113024091CC
:100940001402509115028FBFB901CA0108959B018D
:10095000AC017FB7F89480910E0290910F02A091A4
:100960001002B091110266B5A89B05C06F3F19F047
:100970000196A11DB11D7FBFBA2FA92F982F8827DF
:10098000860F911DA11DB11D62E0880F991FAA1F3E
:10099000BB1F6A95D1F7BC012DC0FFB7F8948091B9
:1009A0000E0290910F02A0911002B0911102E6B5D3
:1009B000A89B05C0EF3F19F00196A11DB11DFFBF17
:1009C000BA2FA92F982F88278E0F911DA11DB11D19
:1009D000E2E0880F991FAA1FBB1FEA95D1F7861B7B
:1009E000970B885E9340C8F2215030404040504001
:1009F00068517C4F211531054105510571F6089567
:100A0000019739F0880F991F880F991F0297019756
:100A1000F1F70895789484B5826084BD84B58160CF
:100A200084BD85B5826085BD85B5816085BDEEE6F6
:100A3000F0E0808181608083E1E8F0E010828081D5
:100A400082608083808181608083E0E8F0E0808143
:100A500081608083E1EBF0E0808184608083E0EB63
:100A6000F0E0808181608083EAE7F0E0808184604B
:100A700080838081826080838081816080838081A7
:100A8000806880831092C1000895CF93DF93482F30
:100A900050E0CA0186569F4FFC0134914A575F4F80
:100AA000FA018491882369F190E0880F991FFC0175
:100AB000E859FF4FA591B491FC01EE58FF4FC59145
:100AC000D491662351F42FB7F8948C91932F90957D
:100AD00089238C93888189230BC0623061F42FB7FE
:100AE000F8948C91932F909589238C938881832BF4
:100AF00088832FBF06C09FB7F8948C91832B8C936B
:100B00009FBFDF91CF910895482F50E0CA018255D1
:100B10009F4FFC012491CA0186569F4FFC0194917E
:100B20004A575F4FFA013491332309F440C022231E
:100B300051F1233071F0243028F42130A1F022301B
:100B400011F514C02630B1F02730C1F02430D9F4AB
:100B500004C0809180008F7703C0809180008F7DDA
:100B60008093800010C084B58F7702C084B58F7DDC
:100B700084BD09C08091B0008F7703C08091B00020
:100B80008F7D8093B000E32FF0E0EE0FFF1FEE5853
:100B9000FF4FA591B4912FB7F894662321F48C915F
:100BA0009095892302C08C91892B8C932FBF089537
:100BB000CF92DF92EF92FF920F931F93CF93DF9329
:100BC0007C016B018A01C0E0D0E00FC0D6016D91BD
:100BD0006D01D701ED91FC910190F081E02DC701ED
:100BE0000995C80FD91F015010400115110571F763
:100BF000CE01DF91CF911F910F91FF90EF90DF9089
:100C0000CF900895CF93DF93EC016115710519F42E
:100C100020E030E00FC0DB010D900020E9F71197D4
:100C2000A61BB70BE881F9810280F381E02DAD01AD
:100C300009959C01C901DF91CF9108950E94020698
:100C400008950F931F93CF93DF93FC01738D7695D7
:100C50007170A685B7859585772329F08C918923B6
:100C600009F454C004C08C91892309F04FC08389D2
:100C7000948920E001972FEF8F3F9207D9F7C5891C
:100C8000D689A685B785158560E031E040E050E063
:100C900000E0CE01202F01972FEF8F3F9207D9F769
:100CA0008C91812311F0632B03C0832F80956823DF
:100CB000330F4F5F5F4F4830510559F78789908D4B
:100CC00020E001972FEF8F3F9207D9F771116095C0
:100CD0008091590220915A0290E001968F73907092
:100CE00030E08217930779F0E0915902F0E0E75E77
:100CF000FD4F60838091590290E001968F73907050
:100D00008093590203C0838D8160838FDF91CF91DF
:100D10001F910F9108951F920F920FB60F921124F9
:100D20002F933F934F935F936F937F938F939F93F3
:100D3000AF93BF93EF93FF938091170290911802A6
:100D4000009711F00E942106FF91EF91BF91AF91A2
:100D50009F918F917F916F915F914F913F912F91D3
:100D60000F900FBE0F901F9018951F920F920FB605
:100D70000F9211242F933F934F935F936F937F9321
:100D80008F939F93AF93BF93EF93FF93809117023D
:100D900090911802009711F00E942106FF91EF91A7
:100DA000BF91AF919F918F917F916F915F914F9183
:100DB0003F912F910F900FBE0F901F9018951F928B
:100DC0000F920FB60F9211242F933F934F935F937F
:100DD0006F937F938F939F93AF93BF93EF93FF9303
:100DE0008091170290911802009711F00E9421063D
:100DF000FF91EF91BF91AF919F918F917F916F91F3
:100E00005F914F913F912F910F900FBE0F901F90C8
:100E10001895CF92DF92EF92FF920F931F93CF938B
:100E2000DF93EC017A018B011A8E198E188E1F8ABE
:100E30001E8A1D8A1C8A1B8A20E030E06901CC0CC6
:100E4000DD1CC20ED31EB601660F771F660F771F1B
:100E5000AB014E535F4FFA0185919591A591B491E5
:100E60008E159F05A007B107E9F4FB01EA53FF4F78
:100E7000859194919C8B8B8BFB01E853FF4F85915F
:100E800094919E8B8D8BFB01E653FF4F859194913E
:100E9000988F8F8BFB01E453FF4F859194919A8F2C
:100EA000898F06C02F5F3F4F2D30310509F0C6CF27
:100EB0008F89988D892B09F449C04C85463108F0FB
:100EC0003DC090916800483010F484E005C04E3079
:100ED00010F082E001C081E0892B809368004830E7
:100EE00028F4EDE6F0E0ADE6B0E00BC04E3028F0BF
:100EF000ECE6F0E0ACE6B0E004C0EBE6F0E0ABE638
:100F0000B0E05081483040F481E090E002C0880FAA
:100F1000991F4A95E2F710C0242F30E04E3018F4A4
:100F20002850304002C02E50304081E090E002C096
:100F3000880F991F2A95E2F7852B8C93898D9A8DBE
:100F400020E001972FEF8F3F9207D9F7809117028A
:100F5000909118028C179D0781F08B8D8E7F8B8F5F
:100F60009FB7F894109259028091590280935A02C7
:100F7000D0931802C09317029FBFDF91CF911F91AA
:100F80000F91FF90EF90DF90CF900895FC01448582
:100F9000463180F5483028F4EDE6F0E0ADE6B0E00B
:100FA0000BC04E3028F4EBE6F0E0ABE6B0E004C056
:100FB000ECE6F0E0ACE6B0E05081483040F481E08F
:100FC00090E002C0880F991F4A95E2F710C0242FC5
:100FD00030E04E3018F42850304002C02E503040DF
:100FE00081E090E002C0880F991F2A95E2F7809572
:100FF00085238C930895FC0189E891E09183808397
:10100000CF010E94C607089520911702309118025F
:101010002817390731F490915A0280915902981794
:1010200019F42FEF3FEF0FC0E0915A02F0E0E75EB6
:10103000FD4F208180915A0290E001968F7390704D
:1010400080935A0230E0C90108952091170230912F
:1010500018022817390719F020E030E00EC08091FF
:10106000590220915A0290E0805C9F4F821B9109A7
:1010700060E470E00E94EF109C01C90108950F9395
:101080001F93DC0159968D919C915A97892B49F4B5
:1010900081E090E013969C938E93129720E030E0CD
:1010A00097C00FB7F8945B968C915B975196ED9132
:1010B000FC91529750962C91509781FF8DC0808162
:1010C000822B808359968D919C915A97059620E0AA
:1010D00001972FEF8F3F9207D9F75B968C915B9723
:1010E00081FF35C031E040E050E070E010E0832F38
:1010F00090E0862397235196ED91FC91529750965C
:101100002C915097892B29F08081209528232083CA
:1011100003C08081822B808359968D919C915A9730
:10112000212F01972FEF8F3F9207D9F7330F4F5F92
:101130005F4F48305105D9F65196ED91FC91529789
:10114000908150968C9150978095892333C031E0DF
:1011500040E050E070E010E0832F90E0862397237A
:101160005196ED91FC91529750962C915097892B66
:1011700021F08081822B808304C0808120952823E8
:10118000208359968D919C915A97212F01972FEF8B
:101190008F3F9207D9F7330F4F5F5F4F48305105AC
:1011A000D9F65196ED91FC915297808150969C9181
:1011B0005097892B80830FBF59968D919C915A9798
:1011C00020E001972FEF8F3F9207D9F721E030E021
:1011D000C9011F910F9108958081209528232083B4
:1011E00071CF20911702309118022817390749F45E
:1011F0009FB7F894109259028091590280935A0235
:101200009FBF0895209117023091180228173907BF
:1012100031F490915A0280915902981719F42FEFE6
:101220003FEF0AC0E0915A02F0E0E75EFD4F808197
:10123000282F332727FD3095C90108951F93CF9399
:10124000DF93EC01162F862F60E00E9445058B8D01
:1012500081FD04C0812F61E00E9484051C87212F3D
:1012600030E0C90186569F4FFC0184918D872A5733
:101270003F4FF9016491E62FF0E0EE0FFF1FE458B5
:10128000FF4F859194919F878E87DF91CF911F911A
:101290000895FF920F931F938C01F62E862F61E025
:1012A0000E9445058F2D61E00E9484058F2D90E0FE
:1012B000FC01E656FF4FE491D8015096EC9350970D
:1012C0008A579F4FFC016491E62FF0E0EE0FFF1F5D
:1012D000EE58FF4F8591949152969C938E9351971F
:1012E0001F910F91FF900895FF920F931F938C0110
:1012F000F62EFC011382128288EE93E0A0E0B0E0AB
:1013000084839583A683B78389E891E09183808362
:10131000148A138A168A158A108E178A128E118ED5
:10132000838D2170220F8C7F822B838FC801642FC5
:101330000E944909C8016F2D0E941E091F910F913B
:10134000FF9008950F931F938C01FC01828160E050
:101350000E948405F801848160E00E948405F80100
:10136000808560E00E948405F801828560E00E942B
:101370008405F801808161E00E948405F80186817E
:1013800061E00E948405F801158614861F910F9173
:101390000895EF92FF921F93CF93DF93EC017B01AF
:1013A000142F8A8160E00E9484058C8161E00E9494
:1013B0008405888561E00E9484058A8560E00E943A
:1013C0008405112381F088816FEF70E00E945C0D2D
:1013D0008E816FEF70E00E945C0D64E670E080E04B
:1013E00090E00E94A7048881B7010E945C0D8E8165
:1013F000B7010E945C0DDF91CF911F91FF90EF909C
:101400000895EF92FF921F93CF93DF93EC017B013E
:10141000142F8A8161E00E9484058C8160E00E9423
:101420008405888560E00E9484058A8561E00E94C9
:101430008405112381F088816FEF70E00E945C0DBC
:101440008E816FEF70E00E945C0D64E670E080E0DA
:1014500090E00E94A7048881B7010E945C0D8E81F4
:10146000B7010E945C0DDF91CF911F91FF90EF902B
:1014700008958F929F92AF92BF92CF92DF92EF9298
:10148000FF920F931F93CF93DF934C01FC01848550
:1014900095856817790709F466C0FFEF61307F070B
:1014A00014F461E07FEFEB016F3F710519F014F068
:1014B000CFEFD0E000D000D0EDB7FEB731969E015F
:1014C000D7FF04C0222733272C1B3D0BB9018827E7
:1014D00077FD8095982F2FEF30E040E050E020839B
:1014E00031834283538320E030E040E050E0FFEF5F
:1014F000EF2EF12C012D112DE6E4AE2EB12CC12CD6
:10150000D12C0E94580E7B0100E00F900F900F909D
:101510000F901C161D060CF401E0F4018281602F6F
:101520000E94840510E01C161D060CF011E0F40169
:101530008481612F0E948405F4018085602F0E94C0
:101540008405F4018285612F0E948405F401808165
:10155000B7010E945C0DF4018681B7010E945C0D09
:10156000F401D587C487DF91CF911F910F91FF9030
:10157000EF90DF90CF90BF90AF909F908F900895A5
:101580002F923F924F925F926F927F928F929F9293
:10159000AF92BF92CF92DF92EF92FF920F931F9381
:1015A000DF93CF93CDB7DEB728970FB6F894DEBFA1
:1015B0000FBECDBF2C014B011A01390157FF12C0DC
:1015C00088279927821B930B481759070CF4CA01E7
:1015D0001C012FEF81309207DCF4A1E02A2EAFEF3F
:1015E0003A2E16C04115510599F0C901492F6214D0
:1015F00073041CF4C101222D492F822F942F1C014A
:101600003FEF2316310421F01CF0FFEF2F2E312C79
:10161000C301AA2797FDA095BA2F8D839E83AF8320
:10162000B88700D000D0EDB7FEB73196910137FEF4
:1016300004C02227332722193309B901882777FDEF
:101640008095982F2FEF30E040E050E020833183E9
:101650004283538320E030E040E050E0EFEFEE2E95
:10166000F12C012D112DAD80BE80CF80D8840E9439
:10167000580E69837A838B839C830F900F900F9011
:101680000F9097FE13C08827992786199709881607
:1016900099060CF4C4014C0191E089169FEF99065C
:1016A000ACF401E0802E0FEF902E10C08114910455
:1016B00069F09301681479040CF4940149012F3FF7
:1016C000310521F01CF01FEF812E912C00D000D0AD
:1016D000EDB7FEB73196940197FE04C02227332759
:1016E00028193909B901882777FD8095982F2FEFA0
:1016F00030E040E050E0208331834283538320E098
:1017000030E040E050E0BFEFEB2EF12C012D112D29
:10171000AD80BE80CF80D8840E94580E7B018C01A2
:101720000F900F900F900F9060E0121413040CF4C0
:1017300061E0F20180850E94840560E012141304C8
:101740000CF061E0D2011A968C910E94840560E051
:10175000181419040CF461E0F20182810E948405DE
:1017600060E0181419040CF061E0D20114968C9119
:101770000E948405E981FA81BF01882777FD809561
:10178000982F0E94A50FD2011E962D913D914D914B
:101790005C9151970E9459100E94720F9B01AC01FD
:1017A000F2018081B9010E945C0DB701882777FDA5
:1017B0008095982F0E94A50FD20152962D913D91B0
:1017C0004D915C9155970E9459100E94720F9B0198
:1017D000AC01F2018681B9010E945C0D28960FB61A
:1017E000F894DEBF0FBECDBFCF91DF911F910F9157
:1017F000FF90EF90DF90CF90BF90AF909F908F9031
:101800007F906F905F904F903F902F9008956F92D0
:101810007F928F929F92AF92BF92CF92DF92EF9280
:10182000FF920F931F93DF93CF93CDB7DEB73C01A9
:10183000862FF30186869786A08AB18A89889A883E
:10184000AB88BC88828A938AA48AB58A60837183B4
:10185000538342833583248317830683F186E0868E
:10186000D386C28661E00E944505F301828161E072
:101870000E944505F301848161E00E944505F30162
:10188000868161E00E944505F301808561E00E9448
:101890004505F301828561E00E944505CF91DF9106
:1018A0001F910F91FF90EF90DF90CF90BF90AF907E
:1018B0009F908F907F906F900895FC01828193811B
:1018C0000895FC01862F6083718360E00E944505C6
:1018D00008950E94610C0895EF92FF920F931F9359
:1018E000CF93DF93EC0188810E943A0DAA2797FDE0
:1018F000A095BA2FBC01CD010E94A50F7B018C01E0
:1019000020E030E04AEF53E40E94551018162CF402
:1019100060E070E080E291E41FC0C801B70120E000
:1019200030E040EA52E40E94060F88232CF460E085
:1019300070E080EA92E410C0C801B70120E030E016
:1019400040EA51E40E94A10E9B01AC0160E070E00E
:1019500086E995E40E940A0F0E94770F9B01AC0173
:101960006A833B83CB01DF91CF911F910F91FF9051
:10197000EF900895FC0160857185828593850895B7
:10198000FC01862F6283738361E00E944505089500
:10199000FC01862F6083718360E00E9445050895F5
:1019A0008F929F92AF92BF92CF92DF92EF92FF926F
:1019B0000F931F937C014B0158016901BA010E94EA
:1019C000C00CC701B4010E94C80CF701A482B58203
:1019D000C682D7821F910F91FF90EF90DF90CF903A
:1019E000BF90AF909F908F900895EF92FF920F93CA
:1019F0001F93CF93DF93EC018A8160E00E948405FE
:101A00008AE090E00E9400058A8161E00E948405DE
:101A100084E190E00E9400058A8160E00E948405D4
:101A2000888161E020E432E44FE050E00E94BC0D88
:101A30002AE330E040E050E00E940211EC80FD809B
:101A40000E811F81C901DA019C01AD01E216F30686
:101A50000407150710F4A8019701288739874A87DA
:101A60005B87B901CA01DF91CF911F910F91FF9060
:101A7000EF900895982F8E3008F09E5097708091C7
:101A800084018295880F880F807C892B80937C004D
:101A900080917A00806480937A0080917A0086FD3C
:101AA000FCCF2091780040917900942F80E030E0C5
:101AB000282B392BC90108951F93CF93DF93182F3B
:101AC000EB0161E00E944505209709F44AC0CF3F31
:101AD000D10509F449C0E12FF0E0E255FF4F8491B0
:101AE0008330C1F0843028F4813051F08230B1F578
:101AF0000CC0863019F1873049F1843079F514C073
:101B000084B5806884BDC7BD33C084B5806284BDA0
:101B1000C8BD2EC080918000806880938000D093E3
:101B20008900C093880024C08091800080628093E7
:101B30008000D0938B00C0938A001AC08091B000BF
:101B400080688093B000C093B30012C08091B00051
:101B500080628093B000C093B4000AC0C038D10541
:101B60001CF4812F60E002C0812F61E00E94840597
:101B7000DF91CF911F9108958F929F92AF92BF9264
:101B8000CF92DF92EF92FF920F931F93CF93DF9349
:101B9000A82FB0E0CD0186569F4FFC018490AA5734
:101BA000BF4FFD018491662311F4992401C0982C44
:101BB0006FEFA62E6FEFB62E6FEFC62E6FE0D62E0C
:101BC000A222B322C422D522682F70E0660F771FAD
:101BD00064587F4FEE24FF248701FB01A591B49147
:101BE0000BC0EA14FB040C051D0509F44EC0089453
:101BF000E11CF11C011D111D8C918821891589F3AF
:101C00000CC0EA14FB040C051D0509F43EC0089441
:101C1000E11CF11C011D111D03C0FB01A591B49134
:101C20008C918821891569F720E030E040E050E090
:101C3000FB01C591D4910FC0DA01C9018E0D9F1D22
:101C4000A01FB11F8A159B05AC05BD05F1F02F5FE4
:101C50003F4F4F4F5F4F88818821891569F3CA0133
:101C6000B90125E130E040E050E00E94BC109B014A
:101C7000AC01205F3F4F4F4F5F4F84E05695479533
:101C8000379527958A95D1F704C020E030E040E0F1
:101C900050E0B901CA01DF91CF911F910F91FF90E0
:101CA000EF90DF90CF90BF90AF909F908F9008956E
:101CB0002F923F924F925F926F927F928F929F925C
:101CC000AF92BF92CF92DF92EF92FF920F931F934A
:101CD000DF93CF93CDB7DEB73B014C0119012A0149
:101CE0006D897E898F89988D6A197B098C099D0978
:101CF000621A730A840A950AA40193010E94BC1017
:101D0000E218F30804091509A80197010E9424119B
:101D10002A0D3B1D4C1D5D1DB901CA01CF91DF91FC
:101D20001F910F91FF90EF90DF90CF90BF90AF90F9
:101D30009F908F907F906F905F904F903F902F90EB
:101D400008955058BB27AA270ED075C166D130F030
:101D50006BD120F031F49F3F11F41EF45BC10EF4FF
:101D6000E095E7FB51C1E92F77D180F3BA176207FD
:101D700073078407950718F071F49EF58FC10EF470
:101D8000E0950B2EBA2FA02D0B01B90190010C018B
:101D9000CA01A0011124FF27591B99F0593F50F4A3
:101DA000503E68F11A16F040A22F232F342F4427FB
:101DB000585FF3CF469537952795A795F0405395F3
:101DC000C9F77EF41F16BA0B620B730B840BBAF0C3
:101DD0009150A1F0FF0FBB1F661F771F881FC2F72E
:101DE0000EC0BA0F621F731F841F48F48795779542
:101DF0006795B795F7959E3F08F0B3CF9395880FF9
:101E000008F09927EE0F979587950895D9D008F493
:101E100081E008950CD00FC107D140F0FED030F022
:101E200021F45F3F19F0F0C0511139C1F3C014D152
:101E300098F39923C9F35523B1F3951B550BBB2791
:101E4000AA2762177307840738F09F5F5F4F220F3E
:101E5000331F441FAA1FA9F333D00E2E3AF0E0E837
:101E600030D091505040E695001CCAF729D0FE2F83
:101E700027D0660F771F881FBB1F26173707480715
:101E8000AB07B0E809F0BB0B802DBF01FF279358CB
:101E90005F4F2AF09E3F510568F0B6C000C15F3F1A
:101EA000ECF3983EDCF3869577956795B795F795B3
:101EB0009F5FC9F7880F911D9695879597F90895AB
:101EC000E1E0660F771F881FBB1F62177307840747
:101ED000BA0720F0621B730B840BBA0BEE1F88F756
:101EE000E095089504D06894B111D9C00895BCD08C
:101EF00088F09F5790F0B92F9927B751A0F0D1F0F3
:101F0000660F771F881F991F1AF0BA95C9F712C07C
:101F1000B13081F0C3D0B1E00895C0C0672F782FF1
:101F20008827B85F39F0B93FCCF3869577956795E8
:101F3000B395D9F73EF490958095709561957F4F54
:101F40008F4F9F4F0895E89409C097FB3EF49095FA
:101F50008095709561957F4F8F4F9F4F9923A9F082
:101F6000F92F96E9BB279395F69587957795679511
:101F7000B795F111F8CFFAF4BB0F11F460FF1BC055
:101F80006F5F7F4F8F4F9F4F16C0882311F096E9E8
:101F900011C0772321F09EE8872F762F05C0662396
:101FA00071F096E8862F70E060E02AF09A95660F4F
:101FB000771F881FDAF7880F9695879597F9089508
:101FC000990F0008550FAA0BE0E8FEEF161617064A
:101FD000E807F907C0F012161306E407F50798F0B2
:101FE000621B730B840B950B39F40A2661F0232BCB
:101FF000242B252B21F408950A2609F4A140A69547
:102000008FEF811D811D089597F99F6780E870E02B
:1020100060E008959FEF80EC089500240A9416165E
:10202000170618060906089500240A9412161306C6
:10203000140605060895092E0394000C11F4882354
:1020400052F0BB0F40F4BF2B11F460FF04C06F5F70
:102050007F4F8F4F9F4F089557FD9058440F551F46
:1020600059F05F3F71F04795880F97FB991F61F01A
:102070009F3F79F087950895121613061406551F91
:10208000F2CF4695F1DF08C0161617061806991FFD
:10209000F1CF86957105610508940895E894BB27F2
:1020A00066277727CB0197F908958ADF08F48FEF29
:1020B00008950BD0C0CFB1DF28F0B6DF18F095231C
:1020C00009F0A2CFA7CF1124EACFC6DFA0F3959FD6
:1020D000D1F3950F50E0551F629FF001729FBB270F
:1020E000F00DB11D639FAA27F00DB11DAA1F649FBB
:1020F0006627B00DA11D661F829F2227B00DA11D6E
:10210000621F739FB00DA11D621F839FA00D611DF3
:10211000221F749F3327A00D611D231F849F600D14
:10212000211D822F762F6A2F11249F5750408AF04D
:10213000E1F088234AF0EE0FFF1FBB1F661F771FD9
:10214000881F91505040A9F79E3F510570F05CCF19
:10215000A6CF5F3FECF3983EDCF3869577956795C5
:10216000B795F795E7959F5FC1F7FE2B880F911DF7
:102170009695879597F90895629FD001739FF00116
:10218000829FE00DF11D649FE00DF11D929FF00D07
:10219000839FF00D749FF00D659FF00D9927729F3E
:1021A000B00DE11DF91F639FB00DE11DF91FBD01C9
:1021B000CF0111240895AA1BBB1B51E107C0AA1F20
:1021C000BB1FA617B70710F0A61BB70B881F991FD8
:1021D0005A95A9F780959095BC01CD01089597FB7C
:1021E000092E07260AD077FD04D0E5DF06D00020AF
:1021F0001AF4709561957F4F0895F6F79095819543
:102200009F4F0895A1E21A2EAA1BBB1BFD010DC012
:10221000AA1FBB1FEE1FFF1FA217B307E407F50796
:1022200020F0A21BB30BE40BF50B661F771F881F72
:10223000991F1A9469F760957095809590959B0108
:10224000AC01BD01CF01089597FB092E05260ED0E4
:1022500057FD04D0D7DF0AD0001C38F450954095C4
:10226000309521953F4F4F4F5F4F0895F6F790956A
:102270008095709561957F4F8F4F9F4F0895EE0F1A
:10228000FF1F0590F491E02D099411E0C0E6D1E024
:1022900004C0FE010E9441112296C236D107C9F73F
:0422A000F894FFCFE0
:1022A4000D0A2B5354574D4F443D300D0A000D0A6F
:1022B4002B53544E413D53656565644254536C61E0
:1022C40076650D0A000D0A2B53544F4155543D3188
:1022D4000D0A000D0A2B53544155544F3D300D0A3D
:1022E400000D0A2B494E513D310D0A00A000640037
:1022F400E80300000E002C0100001E00000028006E
:102304000000320000000A000B0009000800100061
:10231400110012001300030002000400050007006E
:102324000600010001000000003F08D8052508044C
:06233400080209F1080097
:00000001FF
